{
  "contractName": "FrajSwap",
  "abi": [
    {
      "inputs": [
        {
          "internalType": "address",
          "name": "tokenAddress",
          "type": "address"
        }
      ],
      "stateMutability": "nonpayable",
      "type": "constructor"
    },
    {
      "anonymous": false,
      "inputs": [
        {
          "indexed": false,
          "internalType": "address",
          "name": "buyer",
          "type": "address"
        },
        {
          "indexed": false,
          "internalType": "uint256",
          "name": "amountOfETH",
          "type": "uint256"
        },
        {
          "indexed": false,
          "internalType": "uint256",
          "name": "amountOfTokens",
          "type": "uint256"
        }
      ],
      "name": "BuyTokens",
      "type": "event"
    },
    {
      "anonymous": false,
      "inputs": [
        {
          "indexed": true,
          "internalType": "address",
          "name": "previousOwner",
          "type": "address"
        },
        {
          "indexed": true,
          "internalType": "address",
          "name": "newOwner",
          "type": "address"
        }
      ],
      "name": "OwnershipTransferred",
      "type": "event"
    },
    {
      "anonymous": false,
      "inputs": [
        {
          "indexed": false,
          "internalType": "address",
          "name": "seller",
          "type": "address"
        },
        {
          "indexed": false,
          "internalType": "uint256",
          "name": "amountOfTokens",
          "type": "uint256"
        },
        {
          "indexed": false,
          "internalType": "uint256",
          "name": "amountOfETH",
          "type": "uint256"
        }
      ],
      "name": "SellTokens",
      "type": "event"
    },
    {
      "inputs": [],
      "name": "admin",
      "outputs": [
        {
          "internalType": "address",
          "name": "",
          "type": "address"
        }
      ],
      "stateMutability": "view",
      "type": "function",
      "constant": true
    },
    {
      "inputs": [],
      "name": "owner",
      "outputs": [
        {
          "internalType": "address",
          "name": "",
          "type": "address"
        }
      ],
      "stateMutability": "view",
      "type": "function",
      "constant": true
    },
    {
      "inputs": [],
      "name": "renounceOwnership",
      "outputs": [],
      "stateMutability": "nonpayable",
      "type": "function"
    },
    {
      "inputs": [],
      "name": "tokensPerEth",
      "outputs": [
        {
          "internalType": "uint256",
          "name": "",
          "type": "uint256"
        }
      ],
      "stateMutability": "view",
      "type": "function",
      "constant": true
    },
    {
      "inputs": [
        {
          "internalType": "address",
          "name": "newOwner",
          "type": "address"
        }
      ],
      "name": "transferOwnership",
      "outputs": [],
      "stateMutability": "nonpayable",
      "type": "function"
    },
    {
      "inputs": [],
      "name": "buyTokens",
      "outputs": [
        {
          "internalType": "uint256",
          "name": "tokenAmount",
          "type": "uint256"
        }
      ],
      "stateMutability": "payable",
      "type": "function",
      "payable": true
    },
    {
      "inputs": [
        {
          "internalType": "uint256",
          "name": "tokenAmountToSell",
          "type": "uint256"
        }
      ],
      "name": "sellTokens",
      "outputs": [],
      "stateMutability": "nonpayable",
      "type": "function"
    },
    {
      "inputs": [],
      "name": "withdraw",
      "outputs": [],
      "stateMutability": "nonpayable",
      "type": "function"
    }
  ],
  "bytecode": "0x608060405260646003553480156200001657600080fd5b50604051620018453803806200184583398181016040528101906200003c91906200021b565b6200005c62000050620000e560201b60201c565b620000ed60201b60201c565b80600260006101000a81548173ffffffffffffffffffffffffffffffffffffffff021916908373ffffffffffffffffffffffffffffffffffffffff16021790555033600160006101000a81548173ffffffffffffffffffffffffffffffffffffffff021916908373ffffffffffffffffffffffffffffffffffffffff160217905550506200024d565b600033905090565b60008060009054906101000a900473ffffffffffffffffffffffffffffffffffffffff169050816000806101000a81548173ffffffffffffffffffffffffffffffffffffffff021916908373ffffffffffffffffffffffffffffffffffffffff1602179055508173ffffffffffffffffffffffffffffffffffffffff168173ffffffffffffffffffffffffffffffffffffffff167f8be0079c531659141344cd1fd0a4f28419497f9722a3daafe3b4186f6b6457e060405160405180910390a35050565b600080fd5b600073ffffffffffffffffffffffffffffffffffffffff82169050919050565b6000620001e382620001b6565b9050919050565b620001f581620001d6565b81146200020157600080fd5b50565b6000815190506200021581620001ea565b92915050565b600060208284031215620002345762000233620001b1565b5b6000620002448482850162000204565b91505092915050565b6115e8806200025d6000396000f3fe60806040526004361061007b5760003560e01c8063cbdd69b51161004e578063cbdd69b514610102578063d0febe4c1461012d578063f2fde38b1461014b578063f851a440146101745761007b565b80633ccfd60b146100805780636c11bcd314610097578063715018a6146100c05780638da5cb5b146100d7575b600080fd5b34801561008c57600080fd5b5061009561019f565b005b3480156100a357600080fd5b506100be60048036038101906100b99190610b7c565b610327565b005b3480156100cc57600080fd5b506100d5610640565b005b3480156100e357600080fd5b506100ec6106c8565b6040516100f99190610bea565b60405180910390f35b34801561010e57600080fd5b506101176106f1565b6040516101249190610c14565b60405180910390f35b6101356106f7565b6040516101429190610c14565b60405180910390f35b34801561015757600080fd5b50610172600480360381019061016d9190610c5b565b610958565b005b34801561018057600080fd5b50610189610a4f565b6040516101969190610bea565b60405180910390f35b600160009054906101000a900473ffffffffffffffffffffffffffffffffffffffff1673ffffffffffffffffffffffffffffffffffffffff163373ffffffffffffffffffffffffffffffffffffffff161461022f576040517f08c379a000000000000000000000000000000000000000000000000000000000815260040161022690610ce5565b60405180910390fd5b600047905060008111610277576040517f08c379a000000000000000000000000000000000000000000000000000000000815260040161026e90610d77565b60405180910390fd5b60003373ffffffffffffffffffffffffffffffffffffffff164760405161029d90610dc8565b60006040518083038185875af1925050503d80600081146102da576040519150601f19603f3d011682016040523d82523d6000602084013e6102df565b606091505b5050905080610323576040517f08c379a000000000000000000000000000000000000000000000000000000000815260040161031a90610e4f565b60405180910390fd5b5050565b6000811161036a576040517f08c379a000000000000000000000000000000000000000000000000000000000815260040161036190610ee1565b60405180910390fd5b6000600260009054906101000a900473ffffffffffffffffffffffffffffffffffffffff1673ffffffffffffffffffffffffffffffffffffffff166370a08231336040518263ffffffff1660e01b81526004016103c79190610bea565b602060405180830381865afa1580156103e4573d6000803e3d6000fd5b505050506040513d601f19601f820116820180604052508101906104089190610f16565b90508181101561044d576040517f08c379a000000000000000000000000000000000000000000000000000000000815260040161044490610fb5565b60405180910390fd5b60006003548361045d9190611033565b90506000479050818110156104a7576040517f08c379a000000000000000000000000000000000000000000000000000000000815260040161049e906110d6565b60405180910390fd5b6000600260009054906101000a900473ffffffffffffffffffffffffffffffffffffffff1673ffffffffffffffffffffffffffffffffffffffff166323b872dd3330886040518463ffffffff1660e01b8152600401610508939291906110f6565b6020604051808303816000875af1158015610527573d6000803e3d6000fd5b505050506040513d601f19601f8201168201806040525081019061054b9190611165565b90508061058d576040517f08c379a000000000000000000000000000000000000000000000000000000000815260040161058490611204565b60405180910390fd5b3373ffffffffffffffffffffffffffffffffffffffff16836040516105b190610dc8565b60006040518083038185875af1925050503d80600081146105ee576040519150601f19603f3d011682016040523d82523d6000602084013e6105f3565b606091505b50508091505080610639576040517f08c379a000000000000000000000000000000000000000000000000000000000815260040161063090611270565b60405180910390fd5b5050505050565b610648610a75565b73ffffffffffffffffffffffffffffffffffffffff166106666106c8565b73ffffffffffffffffffffffffffffffffffffffff16146106bc576040517f08c379a00000000000000000000000000000000000000000000000000000000081526004016106b3906112dc565b60405180910390fd5b6106c66000610a7d565b565b60008060009054906101000a900473ffffffffffffffffffffffffffffffffffffffff16905090565b60035481565b600080341161073b576040517f08c379a000000000000000000000000000000000000000000000000000000000815260040161073290611348565b60405180910390fd5b60006003543461074b9190611368565b90506000600260009054906101000a900473ffffffffffffffffffffffffffffffffffffffff1673ffffffffffffffffffffffffffffffffffffffff166370a08231306040518263ffffffff1660e01b81526004016107aa9190610bea565b602060405180830381865afa1580156107c7573d6000803e3d6000fd5b505050506040513d601f19601f820116820180604052508101906107eb9190610f16565b905081811015610830576040517f08c379a000000000000000000000000000000000000000000000000000000000815260040161082790611434565b60405180910390fd5b6000600260009054906101000a900473ffffffffffffffffffffffffffffffffffffffff1673ffffffffffffffffffffffffffffffffffffffff1663a9059cbb33856040518363ffffffff1660e01b815260040161088f929190611454565b6020604051808303816000875af11580156108ae573d6000803e3d6000fd5b505050506040513d601f19601f820116820180604052508101906108d29190611165565b905080610914576040517f08c379a000000000000000000000000000000000000000000000000000000000815260040161090b906114c9565b60405180910390fd5b7f0a37b72bb67eee30e09084cf386f8a17817c57f620c3ab95fb25d6a20356ec77333485604051610947939291906114e9565b60405180910390a182935050505090565b610960610a75565b73ffffffffffffffffffffffffffffffffffffffff1661097e6106c8565b73ffffffffffffffffffffffffffffffffffffffff16146109d4576040517f08c379a00000000000000000000000000000000000000000000000000000000081526004016109cb906112dc565b60405180910390fd5b600073ffffffffffffffffffffffffffffffffffffffff168173ffffffffffffffffffffffffffffffffffffffff1603610a43576040517f08c379a0000000000000000000000000000000000000000000000000000000008152600401610a3a90611592565b60405180910390fd5b610a4c81610a7d565b50565b600160009054906101000a900473ffffffffffffffffffffffffffffffffffffffff1681565b600033905090565b60008060009054906101000a900473ffffffffffffffffffffffffffffffffffffffff169050816000806101000a81548173ffffffffffffffffffffffffffffffffffffffff021916908373ffffffffffffffffffffffffffffffffffffffff1602179055508173ffffffffffffffffffffffffffffffffffffffff168173ffffffffffffffffffffffffffffffffffffffff167f8be0079c531659141344cd1fd0a4f28419497f9722a3daafe3b4186f6b6457e060405160405180910390a35050565b600080fd5b6000819050919050565b610b5981610b46565b8114610b6457600080fd5b50565b600081359050610b7681610b50565b92915050565b600060208284031215610b9257610b91610b41565b5b6000610ba084828501610b67565b91505092915050565b600073ffffffffffffffffffffffffffffffffffffffff82169050919050565b6000610bd482610ba9565b9050919050565b610be481610bc9565b82525050565b6000602082019050610bff6000830184610bdb565b92915050565b610c0e81610b46565b82525050565b6000602082019050610c296000830184610c05565b92915050565b610c3881610bc9565b8114610c4357600080fd5b50565b600081359050610c5581610c2f565b92915050565b600060208284031215610c7157610c70610b41565b5b6000610c7f84828501610c46565b91505092915050565b600082825260208201905092915050565b7f41646d696e206f6e6c792e000000000000000000000000000000000000000000600082015250565b6000610ccf600b83610c88565b9150610cda82610c99565b602082019050919050565b60006020820190508181036000830152610cfe81610cc2565b9050919050565b7f4f776e657220686173206e6f742062616c616e636520746f207769746864726160008201527f7700000000000000000000000000000000000000000000000000000000000000602082015250565b6000610d61602183610c88565b9150610d6c82610d05565b604082019050919050565b60006020820190508181036000830152610d9081610d54565b9050919050565b600081905092915050565b50565b6000610db2600083610d97565b9150610dbd82610da2565b600082019050919050565b6000610dd382610da5565b9150819050919050565b7f4661696c656420746f2073656e6420757365722062616c616e6365206261636b60008201527f20746f20746865206f776e657200000000000000000000000000000000000000602082015250565b6000610e39602d83610c88565b9150610e4482610ddd565b604082019050919050565b60006020820190508181036000830152610e6881610e2c565b9050919050565b7f5370656369667920616e20616d6f756e74206f6620746f6b656e20677265617460008201527f6572207468616e207a65726f0000000000000000000000000000000000000000602082015250565b6000610ecb602c83610c88565b9150610ed682610e6f565b604082019050919050565b60006020820190508181036000830152610efa81610ebe565b9050919050565b600081519050610f1081610b50565b92915050565b600060208284031215610f2c57610f2b610b41565b5b6000610f3a84828501610f01565b91505092915050565b7f596f75722062616c616e6365206973206c6f776572207468616e20746865206160008201527f6d6f756e74206f6620746f6b656e7320796f752077616e7420746f2073656c6c602082015250565b6000610f9f604083610c88565b9150610faa82610f43565b604082019050919050565b60006020820190508181036000830152610fce81610f92565b9050919050565b7f4e487b7100000000000000000000000000000000000000000000000000000000600052601260045260246000fd5b7f4e487b7100000000000000000000000000000000000000000000000000000000600052601160045260246000fd5b600061103e82610b46565b915061104983610b46565b92508261105957611058610fd5565b5b828204905092915050565b7f44455820686173206e6f7420656e6f7567682066756e647320746f206163636560008201527f7074207468652073656c6c207265717565737400000000000000000000000000602082015250565b60006110c0603383610c88565b91506110cb82611064565b604082019050919050565b600060208201905081810360008301526110ef816110b3565b9050919050565b600060608201905061110b6000830186610bdb565b6111186020830185610bdb565b6111256040830184610c05565b949350505050565b60008115159050919050565b6111428161112d565b811461114d57600080fd5b50565b60008151905061115f81611139565b92915050565b60006020828403121561117b5761117a610b41565b5b600061118984828501611150565b91505092915050565b7f4661696c656420746f207472616e7366657220746f6b656e732066726f6d207560008201527f73657220746f2044455800000000000000000000000000000000000000000000602082015250565b60006111ee602a83610c88565b91506111f982611192565b604082019050919050565b6000602082019050818103600083015261121d816111e1565b9050919050565b7f4661696c656420746f2073656e642045544820746f2074686520757365720000600082015250565b600061125a601e83610c88565b915061126582611224565b602082019050919050565b600060208201905081810360008301526112898161124d565b9050919050565b7f4f776e61626c653a2063616c6c6572206973206e6f7420746865206f776e6572600082015250565b60006112c6602083610c88565b91506112d182611290565b602082019050919050565b600060208201905081810360008301526112f5816112b9565b9050919050565b7f53656e642045544820746f2062757920736f6d6520746f6b656e730000000000600082015250565b6000611332601b83610c88565b915061133d826112fc565b602082019050919050565b6000602082019050818103600083015261136181611325565b9050919050565b600061137382610b46565b915061137e83610b46565b9250817fffffffffffffffffffffffffffffffffffffffffffffffffffffffffffffffff04831182151516156113b7576113b6611004565b5b828202905092915050565b7f44455820636f6e747261637420686173206e6f7420656e6f75676820746f6b6560008201527f6e7320696e206974732062616c616e6365000000000000000000000000000000602082015250565b600061141e603183610c88565b9150611429826113c2565b604082019050919050565b6000602082019050818103600083015261144d81611411565b9050919050565b60006040820190506114696000830185610bdb565b6114766020830184610c05565b9392505050565b7f4661696c656420746f207472616e7366657220746f6b656e20746f2075736572600082015250565b60006114b3602083610c88565b91506114be8261147d565b602082019050919050565b600060208201905081810360008301526114e2816114a6565b9050919050565b60006060820190506114fe6000830186610bdb565b61150b6020830185610c05565b6115186040830184610c05565b949350505050565b7f4f776e61626c653a206e6577206f776e657220697320746865207a65726f206160008201527f6464726573730000000000000000000000000000000000000000000000000000602082015250565b600061157c602683610c88565b915061158782611520565b604082019050919050565b600060208201905081810360008301526115ab8161156f565b905091905056fea2646970667358221220e158e6a2e4d31f1f57f32b7d80a6054e4eaca739f5c000bf304bd6664b0b4eaa64736f6c634300080d0033",
  "immutableReferences": {},
  "source": "// SPDX-License-Identifier: MIT\r\npragma solidity ^0.8.13;\r\n\r\nimport \"./FrajCoin.sol\";\r\n\r\n// Learn more about the ERC20 implementation\r\n// on OpenZeppelin docs: https://docs.openzeppelin.com/contracts/4.x/api/access#Ownable\r\nimport \"@openzeppelin/contracts/access/Ownable.sol\";\r\n\r\ncontract FrajSwap is Ownable {\r\n    // FrajCoin Contract\r\n    address public admin;\r\n    FrajCoin frajcoin;\r\n\r\n    // token price for ETH\r\n    uint256 public tokensPerEth = 100;\r\n\r\n    // Event that log buy operation\r\n    event BuyTokens(address buyer, uint256 amountOfETH, uint256 amountOfTokens);\r\n    event SellTokens(\r\n        address seller,\r\n        uint256 amountOfTokens,\r\n        uint256 amountOfETH\r\n    );\r\n\r\n    constructor(address tokenAddress) {\r\n        frajcoin = FrajCoin(tokenAddress);\r\n        admin = msg.sender;\r\n    }\r\n\r\n    /**\r\n     * @notice Allow users to buy tokens for ETH\r\n     */\r\n    function buyTokens() public payable returns (uint256 tokenAmount) {\r\n        require(msg.value > 0, \"Send ETH to buy some tokens\");\r\n\r\n        uint256 amountToBuy = msg.value * tokensPerEth;\r\n\r\n        // check if the DEX Contract has enough amount of tokens for the transaction\r\n        uint256 dexBalance = frajcoin.balanceOf(address(this));\r\n        require(\r\n            dexBalance >= amountToBuy,\r\n            \"DEX contract has not enough tokens in its balance\"\r\n        );\r\n\r\n        // Transfer token to the msg.sender\r\n        bool sent = frajcoin.transfer(msg.sender, amountToBuy);\r\n        require(sent, \"Failed to transfer token to user\");\r\n\r\n        // emit the event\r\n        emit BuyTokens(msg.sender, msg.value, amountToBuy);\r\n\r\n        return amountToBuy;\r\n    }\r\n\r\n    /**\r\n     * @notice Allow users to sell tokens for ETH\r\n     */\r\n    function sellTokens(uint256 tokenAmountToSell) public {\r\n        // Check that the requested amount of tokens to sell is more than 0\r\n        require(\r\n            tokenAmountToSell > 0,\r\n            \"Specify an amount of token greater than zero\"\r\n        );\r\n\r\n        // Check that the user's token balance is enough to do the swap\r\n        uint256 userBalance = frajcoin.balanceOf(msg.sender);\r\n        require(\r\n            userBalance >= tokenAmountToSell,\r\n            \"Your balance is lower than the amount of tokens you want to sell\"\r\n        );\r\n\r\n        // Check that the DEX's balance is enough to do the swap\r\n        uint256 amountOfETHToTransfer = tokenAmountToSell / tokensPerEth;\r\n        uint256 ownerETHBalance = address(this).balance;\r\n        require(\r\n            ownerETHBalance >= amountOfETHToTransfer,\r\n            \"DEX has not enough funds to accept the sell request\"\r\n        );\r\n\r\n        bool sent = frajcoin.transferFrom(\r\n            msg.sender,\r\n            address(this),\r\n            tokenAmountToSell\r\n        );\r\n        require(sent, \"Failed to transfer tokens from user to DEX\");\r\n\r\n        (sent, ) = msg.sender.call{value: amountOfETHToTransfer}(\"\");\r\n        require(sent, \"Failed to send ETH to the user\");\r\n    }\r\n\r\n    /**\r\n     * @notice Allow the owner of the contract to withdraw ETH\r\n     */\r\n    function withdraw() public {\r\n        require(msg.sender == admin, \"Admin only.\");\r\n        uint256 ownerBalance = address(this).balance;\r\n        require(ownerBalance > 0, \"Owner has not balance to withdraw\");\r\n\r\n        (bool sent, ) = msg.sender.call{value: address(this).balance}(\"\");\r\n        require(sent, \"Failed to send user balance back to the owner\");\r\n    }\r\n}\r\n",
  "sourcePath": "C:\\Users\\benfr\\Documents\\coding\\blockchain\\projects\\frajswap\\src\\contracts\\FrajSwap.sol",
  "compiler": {
    "name": "solc",
    "version": "0.8.13+commit.abaa5c0e.Emscripten.clang"
  },
  "schemaVersion": "3.4.6",
  "updatedAt": "2022-03-30T07:11:12.664Z",
  "networkType": "ethereum",
  "devdoc": {
    "kind": "dev",
    "methods": {
      "owner()": {
        "details": "Returns the address of the current owner."
      },
      "renounceOwnership()": {
        "details": "Leaves the contract without owner. It will not be possible to call `onlyOwner` functions anymore. Can only be called by the current owner. NOTE: Renouncing ownership will leave the contract without an owner, thereby removing any functionality that is only available to the owner."
      },
      "transferOwnership(address)": {
        "details": "Transfers ownership of the contract to a new account (`newOwner`). Can only be called by the current owner."
      }
    },
    "version": 1
  },
  "userdoc": {
    "kind": "user",
    "methods": {
      "buyTokens()": {
        "notice": "Allow users to buy tokens for ETH"
      },
      "sellTokens(uint256)": {
        "notice": "Allow users to sell tokens for ETH"
      },
      "withdraw()": {
        "notice": "Allow the owner of the contract to withdraw ETH"
      }
    },
    "version": 1
  }
}